:100000000C945D000C9485000C9485000C94850084
:100010000C9485000C9485000C9485000C9485004C
:100020000C9485000C9485000C9485000C9485003C
:100030000C9485000C9485000C9485000C9485002C
:100040000C9467040C9485000C9435040C940F04F4
:100050000C9485000C9485000C9485000C9485000C
:100060000C9485000C94850000000008000201003B
:100070000003040700000000000000000000000072
:10008000250028002B0000000000240027002A0083
:10009000040404040404040402020202020203032E
:1000A0000303030301020408102040800102040836
:1000B0001020010204081020B10411241FBECFEF4C
:1000C000D8E0DEBFCDBF23E0AAEEB2E001C01D92B2
:1000D000A43EB207E1F712E0A0E0B1E0E0EFF4E106
:1000E00002C005900D92AA3EB107D9F710E0CDE508
:1000F000D0E004C02197FE010E947508CC35D107DD
:10010000C9F70E94F0040C94760A0C940000EDEFFD
:10011000F2E0A089B18982E08C93A485B5851C9218
:10012000A685B7858FEC8C93108EA489B58986E05F
:100130008C93A289B3898C9180618C93A289B389B5
:100140008C9188608C93A289B3898C9180688C9300
:100150000288F389E02D80818F7D8083089590E06F
:10016000FC01EC55FF4F249180579F4FFC01849177
:10017000882399F090E0880F991FFC01EA57FF4F00
:10018000A591B491FC01E458FF4F859194918FB7EC
:10019000F894EC91E22BEC938FBF0895CF92DF920D
:1001A000EF92FF920F931F932FB7F894C090F9022C
:1001B000D090FA02E090FB02F090FC022FBF6C0D91
:1001C0007D1D8E1D9F1D4FB7F8940091F90210916F
:1001D000FA022091FB023091FC024FBF0C151D0565
:1001E0002E053F0528F0601771078207930758F71F
:1001F0001F910F91FF90EF90DF90CF900895AF92F5
:10020000BF92CF92DF92EF92FF920F931F93CF9303
:10021000DF936C017B018B01040F151FEB015E0165
:10022000AE18BF08C017D10759F06991D601ED91FA
:10023000FC910190F081E02DC6010995892B79F799
:10024000C501DF91CF911F910F91FF90EF90DF904B
:10025000CF90BF90AF900895FC01538D448D252F12
:1002600030E0842F90E0821B930B541710F0CF9650
:10027000089501970895FC01918D828D981761F082
:10028000A28DAE0FBF2FB11D5D968C91928D9F5F99
:100290009F73928F90E008958FEF9FEF0895FC0178
:1002A000918D828D981731F0828DE80FF11D858D2B
:1002B00090E008958FEF9FEF0895FC01918D228DBE
:1002C000892F90E0805C9F4F821B91098F73992743
:1002D00008958DEF92E00E945D0121E0892B09F4E1
:1002E00020E0822F089580E090E0892B29F00E9481
:1002F000690181110C9400000895FC01A48DA80FE0
:10030000B92FB11DA35ABF4F2C91848D90E0019657
:100310008F739927848FA689B7892C93A089B18977
:100320008C91837080648C93938D848D981306C018
:100330000288F389E02D80818F7D80830895EF927C
:10034000FF920F931F93CF93DF93EC0181E0888F8F
:100350009B8D8C8D98131AC0E889F989808185FF5F
:1003600015C09FB7F894EE89FF896083E889F98901
:1003700080818370806480839FBF81E090E0DF9103
:10038000CF911F910F91FF90EF900895F62E0B8D56
:1003900010E00F5F1F4F0F731127E02E8C8D8E1111
:1003A0000CC00FB607FCFACFE889F989808185FF78
:1003B000F5CFCE010E947D01F1CFEB8DEC0FFD2F2B
:1003C000F11DE35AFF4FF0829FB7F8940B8FEA8933
:1003D000FB8980818062CFCFCF93DF93EC01888D42
:1003E0008823B9F0AA89BB89E889F9898C9185FDB0
:1003F00003C0808186FD0DC00FB607FCF7CF8C913E
:1004000085FFF2CF808185FFEDCFCE010E947D0177
:10041000E9CFDF91CF91089590E0FC01E859FF4FBB
:100420002491FC01EC55FF4F3491FC01E057FF4F44
:10043000E491EE23C9F0222339F0233001F1A8F42E
:10044000213019F1223029F1F0E0EE0FFF1FE458BE
:10045000FF4FA591B4918FB7F894EC91611126C02C
:1004600030953E233C938FBF08952730A9F0283064
:10047000C9F0243049F7809180008F7D03C08091BE
:1004800080008F7780938000DFCF84B58F7784BD25
:10049000DBCF84B58F7DFBCF8091B0008F778093C9
:1004A000B000D2CF8091B0008F7DF9CF3E2BDACF54
:1004B0001F93CF93DF93182FEB010E94AF0020977B
:1004C00039F460E0812FDF91CF911F910C940C02E1
:1004D000CF3FD10511F461E0F5CFE12FF0E0E8590D
:1004E000FF4FE491E33031F140F4E130B1F0E2301C
:1004F000E1F0C038D1057CF7E4CFE73029F1E830EE
:1005000059F1E430B1F780918000806280938000DF
:10051000D0938B00C0938A0004C084B5806884BDEA
:10052000C7BDDF91CF911F91089584B5806284BDCE
:10053000C8BDF7CF80918000806880938000D09301
:100540008900C0938800EDCF8091B00080688093CF
:10055000B000C093B300E5CF8091B000806280937B
:10056000B000C093B400DDCF3FB7F8948091EB02A8
:100570009091EC02A091ED02B091EE0226B5A89BFD
:1005800005C02F3F19F00196A11DB11D3FBFBA2F25
:10059000A92F982F8827BC01CD01620F711D811DE5
:1005A000911D42E0660F771F881F991F4A95D1F76A
:1005B00008958DEF92E00E945D0118161906CCF7A0
:1005C0008DEF92E00E943B019093F8028093F70236
:1005D0000895FC0101900020E9F73197AF01481B15
:1005E000590BBC018DEF92E00C94FF00CF93DF9389
:1005F0000E94E902EC0182E291E00E94E9028C0F84
:100600009D1FDF91CF910895CF93DF93FC0144812B
:100610005581608171818DEF92E00E94FF00EC01B5
:1006200082E291E00E94E9028C0F9D1FDF91CF9141
:1006300008950F931F93CF93DF93EC0188819981E5
:10064000009759F02A813B812617370730F081E067
:10065000DF91CF911F910F9108958B016F5F7F4FB5
:100660000E94A009009759F0998388831B830A830D
:100670002C813D81232B59F7FC011082E8CF80E0CB
:10068000E7CFCF93DF93EC0188819981009711F038
:100690000E941709198218821D821C821B821A82ED
:1006A000DF91CF910895EF92FF920F931F93CF9315
:1006B000DF93EC01FB01E080F180E114F10411F122
:1006C0000481158101151105A9F08C819D81080F08
:1006D000191FB801CE010E941903882399F02881BF
:1006E00039818C819D81B701820F931F0E946F0A0F
:1006F0001D830C83CE01DF91CF911F910F91FF904D
:10070000EF900895CE010E944103F4CFEF92FF9243
:100710000F931F93CF93DF93EC017B018A01BA0102
:100720000E94190381110BC0CE010E944103CE012A
:10073000DF91CF911F910F91FF90EF9008951D834E
:100740000C83B701888199810E946F0AF0CFEF92E4
:10075000FF920F931F93CF93DF93CDB7DEB76297CE
:100760000FB6F894DEBF0FBECDBF8C01CB01F801F0
:100770001182108213821282158214824AE09E0135
:100780002F5F3F4F7901B9010E94F407F7010190F3
:100790000020E9F73197AF014E195F09B701C80191
:1007A0000E94860362960FB6F894DEBF0FBECDBFDF
:1007B000DF91CF911F910F91FF90EF900895CF930C
:1007C000DF93EC01FB018617970749F06081718187
:1007D0006115710541F0448155810E948603CE0167
:1007E000DF91CF9108950E944103F9CFFC0111825E
:1007F00010821382128215821482FB010190002064
:10080000E9F73197AF01461B570B0C948603FC01A7
:1008100080819181009711F00C94170908951F921F
:100820000F920FB60F9211242F933F934F935F9324
:100830006F937F938F939F93AF93BF93EF93FF93A8
:100840008DEF92E00E947D01FF91EF91BF91AF91FA
:100850009F918F917F916F915F914F913F912F91D8
:100860000F900FBE0F901F9018951F920F920FB60A
:100870000F9211242F938F939F93EF93FF93E09107
:100880000D03F0910E038081E0911303F0911403A6
:1008900082FD1BC09081809116038F5F8F73209122
:1008A0001703821741F0E0911603F0E0E350FD4F8B
:1008B000958F80931603FF91EF919F918F912F91C8
:1008C0000F900FBE0F901F9018958081F4CF1F924C
:1008D0000F920FB60F9211242F933F938F939F93F4
:1008E000AF93BF938091F9029091FA02A091FB021D
:1008F000B091FC023091EA0223E0230F2D3758F526
:100900000196A11DB11D2093EA028093F9029093F4
:10091000FA02A093FB02B093FC028091EB0290914B
:10092000EC02A091ED02B091EE020196A11DB11D65
:100930008093EB029093EC02A093ED02B093EE0251
:10094000BF91AF919F918F913F912F910F900FBECB
:100950000F901F90189526E8230F0296A11DB11D38
:10096000D2CFEDEFF2E01382128288EE93E0A0E0A6
:10097000B0E084839583A683B78384E191E091837B
:10098000808385EC90E09587848784EC90E097875E
:10099000868780EC90E0918B808B81EC90E0938B4C
:1009A000828B82EC90E0958B848B86EC90E0978B29
:1009B000868B118E128E138E148EEAE9F3E0168266
:1009C000178210861186128613861486158616865F
:1009D0001786108A118A128A138A148A158A089532
:1009E000CF93DF93CDB7DEB762970FB6F894DEBF33
:1009F0000FBECDBF789484B5826084BD84B581601C
:100A000084BD85B5826085BD85B5816085BD8091D9
:100A10006E00816080936E00109281008091810051
:100A20008260809381008091810081608093810049
:100A3000809180008160809380008091B10084600B
:100A40008093B1008091B00081608093B00080916C
:100A50007A00846080937A0080917A00826080932B
:100A60007A0080917A00816080937A0080917A0088
:100A7000806880937A001092C1001092DC0310927B
:100A8000DD031092DE031092DF0310929C0310929C
:100A90009D0310929E0310929F0368EB7BE080E021
:100AA00090E00E94CE000E94B4024B015C0128EE4F
:100AB000C22E23E0D22EE12CF12C0E94B402681940
:100AC00079098A099B09683E734081059105A8F35D
:100AD00021E0C21AD108E108F10888EE880E83E00F
:100AE000981EA11CB11CC114D104E104F10429F722
:100AF0000E9487002FB7F8948091F9029091FA0232
:100B0000A091FB02B091FC022FBF80939C039093B5
:100B10009D03A0939E03B0939F0385E291E00E9402
:100B2000E9026AE070E080E090E00E94CE0081E09F
:100B30008093B0032FB7F8948091F9029091FA0254
:100B4000A091FB02B091FC022FBF80939C03909375
:100B50009D03A0939E03B0939F0386E391E00E94C0
:100B6000E9020E94870070E060E08BE00E9458027A
:100B700070E060E08AE00E94580270E060E089E086
:100B80000E945802809102010E94AF0080910701EB
:100B90000E94AF0085E0D82E90E0E92E90E0F92E7B
:100BA0008DEF92E00E945D0118161906CCF78DE3D7
:100BB00091E00E94F6028DEF92E00E943B0190933B
:100BC000F8028093F702BC01CE0101960E94A703B0
:100BD00063E571E0CE0107960E94F603BE016F5FE8
:100BE0007F4FCE0107960E9453030E940403CE015B
:100BF00007960E940704CE0101960E940704809187
:100C0000F7029091F8028534910589F086349105B8
:100C100009F420C182E291E00E94E90285E892E0B5
:100C20000E94E90282E291E00E94E902D2C08BE5D3
:100C300091E00E94F6028EE691E00E94F6020E9488
:100C4000D90264E271E0CE010D960E94F60310E035
:100C500000E00330110509F49FC08DEF92E00E947F
:100C60005D0118161906CCF78DEF92E00E943B014A
:100C7000BC01605371097093F0026093EF026A3D0A
:100C8000FFEF7F0729F1CE0101960E94A703188686
:100C90001F821A8619861C861B86BE01635F7F4FE2
:100CA000CE0107960E94DF03BE016F5F7F4FCE012A
:100CB00007960E945303BC01CE010D960E94DF03EC
:100CC000CE0107960E940704CE0101960E940704F8
:100CD0008091EF029091F002869609F0BACF0F5FF3
:100CE0001F4F8D859E8501301105C9F5009799F13B
:100CF0000E94CD077093F2026093F1021A8219826A
:100D00001C821B821E821D82BE01635F7F4FCE014B
:100D100001960E94DF036BE871E0CE0107960E9406
:100D2000F603BE016F5F7F4FCE0107960E9453030B
:100D30000E940403CE0107960E940704CE0101968B
:100D40000E94070450E040E064E271E0CE010D969D
:100D50000E9486037ECF60E070E0CB01CBCF0230F3
:100D6000110569F4009739F00E94CD077093F402E1
:100D70006093F302C3CF60E070E0CB01F7CF009740
:100D800039F00E94CD077093F6026093F502B6CF5A
:100D900060E070E0CB01F7CFCE010D960E94070412
:100DA0006091F1027091F2028BE00E945802609112
:100DB000F3027091F4028AE00E9458026091F502F9
:100DC0007091F60289E00E9458028CEA91E00E943C
:100DD000F6026091F7027091F802CB0185549109F7
:100DE000029740F16A30710529F1CE0101960E9407
:100DF000A7038D819E8111E0892B51F063E271E0A0
:100E000089819A810E94660A11E0892B09F410E019
:100E1000CE0101960E940704112361F08AEA91E055
:100E20000E94F6028CEA92E00E94E9028AEA91E0CE
:100E30000E94F6028FEC92E00E94F602E114F104A7
:100E400009F4AECE0E946901882309F4A9CE0E945C
:100E50000000A6CE89ED91E00E94F6028CEE91E0B2
:100E60000E94F6020E94D9028DEF92E00E945D017D
:100E700018161906CCF78DEF92E00E943B019C01F9
:100E8000205331093093F0022093EF02C197823052
:100E9000910508F07DC0D89E8001D99E100D1124C7
:100EA00000501F4FF80182819481911169C061E067
:100EB0000E940C0281E0F801848383E092E00E94AA
:100EC000F602F80160817181CE0107960E94A703A6
:100ED00067E172E0CE0101960E94F603BE01695FF0
:100EE0007F4FCE0101960E9453030E940403CE015E
:100EF00001960E940704CE0107960E940704F8019C
:100F0000648170E0CE0107960E94A7036CE172E055
:100F1000CE0101960E94F603BE01695F7F4FCE01AC
:100F200001960E9453030E940403CE0101960E9481
:100F30000704CE0107960E940704F80162817381BD
:100F4000CE0107960E94A70364E272E0CE010196EB
:100F50000E94F603BE01695F7F4FCE0101960E9499
:100F600053030E940403CE0101960E940704CE01A0
:100F700007960E9407040E94D90288E592E027CFD5
:100F800060E00E940C02F80114828AE292E097CF9E
:100F90008DE392E00E94F602EECF1F93FC019927A9
:100FA0008827BC01E89411911032E9F3193010F050
:100FB0001E30C8F31B3251F01D3249F4689406C04C
:100FC0000E94FF07610F711D811D911D119110532A
:100FD0001A30B0F33EF490958095709561957F4FEF
:100FE0008F4F9F4F1F910895BB274A3031F49923AB
:100FF00022F4BDE2909581959F4F0C941508592FCE
:10100000482F372F262F660F771F881F991F660FCF
:10101000771F881F991F620F731F841F951F660F0C
:10102000771F881F991F0895BB27FB015527AA2703
:10103000880F991FAA1FA41710F0A41B8395505165
:10104000B9F7A05DAA3308F0A95DA193009779F7DD
:10105000B111B1931192CB010C942E08DC01FC016B
:10106000672F71917723E1F7329704C07C916D93DC
:1010700070836291AE17BF07C8F308952F923F9215
:101080004F925F926F927F928F929F92AF92BF9298
:10109000CF92DF92EF92FF920F931F93CF93DF9344
:1010A000CDB7DEB7CA1BDB0B0FB6F894DEBF0FBEA1
:1010B000CDBF09942A88398848885F846E847D84EE
:1010C0008C849B84AA84B984C884DF80EE80FD80F0
:1010D0000C811B81AA81B981CE0FD11D0FB6F89466
:1010E000DEBF0FBECDBFED010895EE0FFF1F0590CF
:1010F000F491E02D09940F931F93CF93DF938230E7
:10110000910510F482E090E0E091E203F091E303B6
:1011100030E020E0B0E0A0E0309799F421153105EF
:1011200009F44AC0281B390B24303105D8F58A81CF
:101130009B816115710589F1FB0193838283FE0117
:1011400011C0408151810281138148175907E0F095
:101150004817590799F4109761F012960C9312975B
:1011600013961C933296CF01DF91CF911F910F916F
:1011700008950093E2031093E303F4CF21153105A2
:1011800051F04217530738F0A901DB019A01BD0164
:10119000DF01F801C1CFEF01F9CF9093E303809312
:1011A000E203CDCFFE01E20FF31F81939193225012
:1011B000310939832883D7CF2091E0033091E103AF
:1011C000232B41F420910C0130910D013093E10368
:1011D0002093E00320910A0130910B012115310584
:1011E00041F42DB73EB740910E0150910F01241BE1
:1011F000350BE091E003F091E103E217F307A0F46F
:101200002E1B3F0B2817390778F0AC014E5F5F4F5C
:101210002417350748F04E0F5F1F5093E1034093AA
:10122000E003819391939FCFF0E0E0E09CCFCF93D8
:10123000DF930097E9F0FC01329713821282A091AC
:10124000E203B091E303ED0130E020E01097A1F458
:1012500020813181820F931F2091E0033091E103BF
:101260002817390709F061C0F093E103E093E00328
:10127000DF91CF910895EA01CE17DF07E8F54A81A3
:101280005B819E0141155105B1F7E901FB83EA83BA
:1012900049915991C40FD51FEC17FD0761F4808166
:1012A00091810296840F951FE90199838883828139
:1012B00093819B838A83F0E0E0E012968D919C916C
:1012C00013970097B9F52D913C911197CD01029696
:1012D000820F931F2091E0033091E1032817390713
:1012E00039F6309751F51092E3031092E203B09370
:1012F000E103A093E003BCCFD383C283408151813B
:10130000840F951FC817D90761F44E5F5F4F88811E
:101310009981480F591F518340838A819B81938310
:1013200082832115310509F0B0CFF093E303E093F8
:10133000E2039ECFFD01DC01C0CF13821282D7CF22
:10134000B0E0A0E0E6EAF9E00C9440088C010097D8
:1013500051F4CB010E947B088C01C801CDB7DEB7E8
:10136000E0E10C945C08FC01E60FF71F9C012250A1
:101370003109E217F30708F49DC0D901CD91DC9142
:101380001197C617D70798F0C530D10530F3CE01B5
:1013900004978617970708F3C61BD70B2297C193AC
:1013A000D1936D937C93CF010E941709D6CF5B0137
:1013B000AC1ABD0A4C018C0E9D1EA091E203B091A7
:1013C000E303512C412CF12CE12C109731F5809145
:1013D000E0039091E1038815990509F05CC0461679
:1013E000570608F058C080910A0190910B010097B0
:1013F00041F48DB79EB740910E0150910F01841BAF
:10140000950BE817F90708F055C0F093E103E09356
:10141000E003F90171836083A0CF8D919C911197B6
:1014200012966C90129713967C901397A815B90595
:1014300059F56C0142E0C40ED11CCA14DB0420F142
:10144000AC014A195B09DA011296159780F06282A5
:10145000738251834083D9016D937C93E114F1042D
:1014600071F0D7011396FC93EE93129776CF2296E4
:101470008C0F9D1FF90191838083F301EFCFF093CF
:10148000E303E093E20369CF4816590608F42C0100
:101490007D01D3019ACFCB010E947B087C0100978C
:1014A00049F0AE01B8010E945D0AC8010E94170907
:1014B000870153CF10E000E050CFFB01DC0102C0F8
:1014C00001900D9241505040D8F70895FB01DC0186
:1014D0008D91019080190110D9F3990B0895FB01AA
:1014E000DC0101900D920020E1F70895F894FFCF00
:1014F000010002000002000400000000E40380007C
:10150000000000009F01FF002C01EC015D013B0188
:101510004F010D0A00564D4450565F317C315F56E5
:101520004D4450560A00564D4450525F00496E6972
:1015300063696F2064656C2050726F6772616D61C2
:101540003A200054617265613A2000456E74726FF2
:1015500020656E206F7063696F6E20452E004573A5
:10156000706572616E646F206461746F732064656E
:1015700020636F6C6F7265733A200020202020205A
:101580002020202020202020202020636F6C6F72DC
:1015900020666F726D61646F203A20002020202049
:1015A0002020202020202020202020207465726D03
:1015B000696E6F20656C20636173652045206465EA
:1015C0006C2073776974636800456E74726F206570
:1015D0006E206F7063696F6E20462E0045737065D4
:1015E00072616E646F2069642064652072656C6549
:1015F0003A200053652070726564696F20656C2025
:1016000072656C653A200069643A200073746174F5
:10161000653A200070696E3A200053652061706160
:10162000676F20656C2072656C653A20004E6F20F4
:101630006578697374652072656C6520636F6E20D0
:101640006573652069642E00202020202020202042
:1016500020202020202020207465726D696E6F206C
:10166000656C206361736520462064656C20737728
:1016700069746368004E6F207365207265636F6ED6
:101680006F63696F206C612074617265612E2864DC
:101690006573646573776974636829004E6F20739E
:1016A00065207265636F6E6F63696F206C61207473
:1016B000617265612E2864657364656966290054EA
:1016C00065726D696E6F20746F646F20656C207039
:0A16D000726F6772616D612E0000F9
:00000001FF
