:100000000C945D000C9485000C9485000C94850084
:100010000C9485000C9485000C9485000C9485004C
:100020000C9485000C9485000C9485000C9485003C
:100030000C9485000C9485000C9485000C9485002C
:100040000C9430030C9485000C94FE020C94D8029E
:100050000C9485000C9485000C9485000C9485000C
:100060000C9485000C9485000000000024002700FB
:100070002A0000000000250028002B0004040404CE
:100080000404040402020202020203030303030342
:10009000010204081020408001020408102001021F
:1000A00004081020000000080002010000030407FB
:1000B00000000000000000007A0311241FBECFEFF3
:1000C000D8E0DEBFCDBF22E0AEE2B1E001C01D92BC
:1000D000A832B207E1F711E0A0E0B1E0E4EBFAE00A
:1000E00002C005900D92AE32B107D9F710E0CDE510
:1000F000D0E004C02197FE010E945205CC35D10703
:10010000C9F70E94B9030C9458050C940000E5E46B
:10011000F1E0A089B18982E08C93A485B5851C9219
:10012000A685B7858FEC8C93108EA489B58986E05F
:100130008C93A289B3898C9180618C93A289B389B5
:100140008C9188608C93A289B3898C9180688C9300
:100150000288F389E02D80818F7D80830895CF927E
:10016000DF92EF92FF920F931F932FB7F894C090F6
:100170004101D0904201E0904301F09044012FBF33
:100180006C0D7D1D8E1D9F1D4FB7F8940091410190
:100190001091420120914301309144014FBF0C1551
:1001A0001D052E053F0528F060177107820793078C
:1001B00058F71F910F91FF90EF90DF90CF90089527
:1001C000AF92BF92CF92DF92EF92FF920F931F9365
:1001D000CF93DF936C017B018B01040F151FEB01A3
:1001E0005E01AE18BF08C017D10759F06991D6015A
:1001F000ED91FC910190F081E02DC6010995892BCC
:1002000079F7C501DF91CF911F910F91FF90EF908A
:10021000DF90CF90BF90AF900895FC01538D448D37
:10022000252F30E0842F90E0821B930B541710F0A1
:10023000CF96089501970895FC01918D828D9817AE
:1002400061F0A28DAE0FBF2FB11D5D968C91928D86
:100250009F5F9F73928F90E008958FEF9FEF0895B7
:10026000FC01918D828D981731F0828DE80FF11D80
:10027000858D90E008958FEF9FEF0895FC01918D9B
:10028000228D892F90E0805C9F4F821B91098F7394
:100290009927089585E491E00E943E0121E0892B91
:1002A00009F420E0822F089580E090E0892B29F066
:1002B0000E944A0181110C9400000895FC01A48D54
:1002C000A80FB92FB11DA35ABF4F2C91848D90E078
:1002D00001968F739927848FA689B7892C93A0895B
:1002E000B1898C91837080648C93938D848D9813E5
:1002F00006C00288F389E02D80818F7D8083089578
:10030000EF92FF920F931F93CF93DF93EC0181E065
:10031000888F9B8D8C8D98131AC0E889F98980810C
:1003200085FF15C09FB7F894EE89FF896083E8893F
:10033000F98980818370806480839FBF81E090E031
:10034000DF91CF911F910F91FF90EF900895F62EBE
:100350000B8D10E00F5F1F4F0F731127E02E8C8D58
:100360008E110CC00FB607FCFACFE889F98980819D
:1003700085FFF5CFCE010E945E01F1CFEB8DEC0F32
:10038000FD2FF11DE35AFF4FF0829FB7F8940B8FBA
:10039000EA89FB8980818062CFCFCF93DF93EC0124
:1003A000888D8823B9F0AA89BB89E889F9898C915D
:1003B00085FD03C0808186FD0DC00FB607FCF7CF19
:1003C0008C9185FFF2CF808185FFEDCFCE010E9419
:1003D0005E01E9CFDF91CF91089590E0FC01EC55EB
:1003E000FF4F2491FC01E057FF4F3491FC01E4588A
:1003F000FF4FE491EE23C9F0222339F0233001F1BD
:10040000A8F4213019F1223029F1F0E0EE0FFF1F9E
:10041000EE58FF4FA591B4918FB7F894EC9161110C
:1004200026C030953E233C938FBF08952730A9F016
:100430002830C9F0243049F7809180008F7D03C0B7
:10044000809180008F7780938000DFCF84B58F7795
:1004500084BDDBCF84B58F7DFBCF8091B0008F77DB
:100460008093B000D2CF8091B0008F7DF9CF3E2B2A
:10047000DACF482F50E0FA01E057FF4F9491FA018C
:10048000E458FF4F2491222399F030E0220F331FCC
:10049000F901E859FF4FA591B491F901EE58FF4FCA
:1004A000259134912FB7F894EC91E92BEC932FBF61
:1004B0006115710519F460E00C94ED016F3F710551
:1004C00011F461E0F9CFFA01EC55FF4FE491E3300C
:1004D00019F140F4E130B1F0E230C9F06038710553
:1004E00084F7E9CFE73011F1E83041F1E430B1F7BA
:1004F0008091800080628093800070938B00609375
:100500008A00089584B5806884BD67BD089584B568
:10051000806284BD68BD089580918000806880936A
:100520008000709389006093880008958091B000E6
:1005300080688093B0006093B30008958091B0000C
:1005400080628093B0006093B40008953FB7F89440
:1005500080912F0190913001A0913101B091320131
:1005600026B5A89B05C02F3F19F00196A11DB11D0E
:100570003FBFBA2FA92F982F8827BC01CD01620F4A
:10058000711D811D911D42E0660F771F881F991F05
:100590004A95D1F70895FC0101900020E9F73197C1
:1005A000AF01481B590BBC0185E491E00C94E000BD
:1005B0001F920F920FB60F9211242F933F934F93D8
:1005C0005F936F937F938F939F93AF93BF93EF93BB
:1005D000FF9385E491E00E945E01FF91EF91BF914E
:1005E000AF919F918F917F916F915F914F913F91CB
:1005F0002F910F900FBE0F901F9018951F920F9282
:100600000FB60F9211242F938F939F93EF93FF9325
:10061000E0915501F09156018081E0915B01F091EC
:100620005C0182FD1BC0908180915E018F5F8F73A2
:1006300020915F01821741F0E0915E01F0E0EB5BF9
:10064000FE4F958F80935E01FF91EF919F918F9167
:100650002F910F900FBE0F901F9018958081F4CFAF
:100660001F920F920FB60F9211242F933F938F93E7
:100670009F93AF93BF938091410190914201A091CC
:100680004301B091440130912E0123E0230F2D3717
:1006900058F50196A11DB11D20932E0180934101B3
:1006A00090934201A0934301B093440180912F01A4
:1006B00090913001A0913101B09132010196A11DBC
:1006C000B11D80932F0190933001A0933101B0931D
:1006D0003201BF91AF919F918F913F912F910F90D8
:1006E0000FBE0F901F90189526E8230F0296A11DAC
:1006F000B11DD2CFE5E4F1E01382128288EE93E0DF
:10070000A0E0B0E084839583A683B78384E091E082
:100710009183808385EC90E09587848784EC90E0DA
:100720009787868780EC90E0918B808B81EC90E0BE
:10073000938B828B82EC90E0958B848B86EC90E09F
:10074000978B868B118E128E138E148EE2EEF1E053
:1007500016821782108611861286138614861586D5
:1007600016861786108A118A128A138A148A158AA5
:100770000895CF93DF93CDB7DEB7A1970FB6F89466
:10078000DEBF0FBECDBF789484B5826084BD84B5D2
:10079000816084BD85B5826085BD85B5816085BD7C
:1007A00080916E00816080936E0010928100809134
:1007B00081008260809381008091810081608093BC
:1007C0008100809180008160809380008091B100E1
:1007D00084608093B1008091B00081608093B0000C
:1007E00080917A00846080937A0080917A008260A0
:1007F00080937A0080917A00816080937A00809162
:100800007A00806880937A001092C10010922402CE
:100810001092250210922602109227021092E401F3
:100820001092E5011092E6011092E70168EB7BE07F
:1008300080E090E00E94AF000E94A6024B015C01A4
:1008400098EEC92E93E0D92EE12CF12C0E94A6023D
:10085000681979098A099B09683E734081059105E9
:10086000A8F321E0C21AD108E108F10888EE880E49
:1008700083E0981EA11CB11CC114D104E104F10451
:1008800029F70E9487002FB7F89480914101909139
:100890004201A0914301B09144012FBF8093E40134
:1008A0009093E501A093E601B093E70182E191E026
:1008B0000E94CB026AE070E080E090E00E94AF000E
:1008C00081E08093F8012FB7F894809141019091D5
:1008D0004201A0914301B09144012FBF8093E401F4
:1008E0009093E501A093E601B093E70183E291E0E4
:1008F0000E94CB020E9487006FEF70E08BE00E94A5
:10090000390270E060E08AE00E94390270E060E045
:1009100089E00E9439028AE0882E912CA12CB12C0A
:1009200000E010E085E491E00E943E0118161906EF
:100930000CF060C085E491E00E943E016C01990FCB
:10094000EE08FF08F7FE76C06DE285E491E00E94B4
:10095000800122273327A9012C193D094E095F097F
:1009600019A2CE0181967C01CA01B901A5019401A9
:100970000E943005605DF70162937F01211531050A
:100980004105510589F7E114F10419F0C7010E94EE
:10099000CB028AE291E00E94CB0285E491E00E94C2
:1009A0001C0120913F0130914001A9014F5F5F4F31
:1009B0005093400140933F01245C3E4FF9018083F6
:1009C000433051050CF4AECF80913E0190913D0132
:1009D00020913C01209333019093340180933501A1
:1009E0001092400110923F0110923C0110923D0183
:1009F00010923E01E0903401F09035016091330196
:100A000070E08BE00E9439026E2D70E08AE00E9457
:100A100039026F2D70E089E00E943902011511053D
:100A200009F480CF0E944A01882309F47BCF0E94F9
:100A3000000078CFA701960119A2CE0181967C0112
:100A4000CA01B901A50194010E943005605DF7015A
:100A500062937F01211531054105510589F793CF37
:100A6000A1E21A2EAA1BBB1BFD010DC0AA1FBB1FB2
:100A7000EE1FFF1FA217B307E407F50720F0A21B24
:100A8000B30BE40BF50B661F771F881F991F1A9491
:100A900069F760957095809590959B01AC01BD01BB
:100AA000CF010895EE0FFF1F0590F491E02D0994FA
:040AB000F894FFCFE8
:100AB400000000008001E0000D01CD013E011C0199
:100AC4003001564D4450565F317C315F564D445091
:0E0AD400560A00564D4450525F000D0A0000B5
:107E0000112484B714BE81FFF0D085E080938100F7
:107E100082E08093C00088E18093C10086E0809377
:107E2000C20080E18093C4008EE0C9D0259A86E02C
:107E300020E33CEF91E0309385002093840096BBD3
:107E4000B09BFECF1D9AA8958150A9F7CC24DD24C4
:107E500088248394B5E0AB2EA1E19A2EF3E0BF2EE7
:107E6000A2D0813461F49FD0082FAFD0023811F036
:107E7000013811F484E001C083E08DD089C08234E0
:107E800011F484E103C0853419F485E0A6D080C0E4
:107E9000853579F488D0E82EFF2485D0082F10E0AE
:107EA000102F00270E291F29000F111F8ED06801E7
:107EB0006FC0863521F484E090D080E0DECF843638
:107EC00009F040C070D06FD0082F6DD080E0C81688
:107ED00080E7D80618F4F601B7BEE895C0E0D1E017
:107EE00062D089930C17E1F7F0E0CF16F0E7DF06D8
:107EF00018F0F601B7BEE89568D007B600FCFDCFD4
:107F0000A601A0E0B1E02C9130E011968C91119780
:107F100090E0982F8827822B932B1296FA010C0160
:107F200087BEE89511244E5F5F4FF1E0A038BF0790
:107F300051F7F601A7BEE89507B600FCFDCF97BE46
:107F4000E89526C08437B1F42ED02DD0F82E2BD052
:107F50003CD0F601EF2C8F010F5F1F4F84911BD097
:107F6000EA94F801C1F70894C11CD11CFA94CF0C13
:107F7000D11C0EC0853739F428D08EE10CD085E9AC
:107F80000AD08FE07ACF813511F488E018D01DD067
:107F900080E101D065CF982F8091C00085FFFCCF94
:107FA0009093C60008958091C00087FFFCCF809118
:107FB000C00084FD01C0A8958091C6000895E0E648
:107FC000F0E098E1908380830895EDDF803219F02E
:107FD00088E0F5DFFFCF84E1DECF1F93182FE3DFCA
:107FE0001150E9F7F2DF1F91089580E0E8DFEE27F6
:047FF000FF270994CA
:027FFE00040479
:0400000300007E007B
:00000001FF